{
  "contractName": "studentRegistration",
  "abi": [
    {
      "inputs": [],
      "stateMutability": "nonpayable",
      "type": "constructor"
    },
    {
      "anonymous": false,
      "inputs": [
        {
          "indexed": true,
          "internalType": "address",
          "name": "studentId",
          "type": "address"
        },
        {
          "indexed": true,
          "internalType": "uint256",
          "name": "rollNo",
          "type": "uint256"
        }
      ],
      "name": "registration",
      "type": "event"
    },
    {
      "inputs": [],
      "name": "admin",
      "outputs": [
        {
          "internalType": "address",
          "name": "",
          "type": "address"
        }
      ],
      "stateMutability": "view",
      "type": "function",
      "constant": true
    },
    {
      "inputs": [],
      "name": "count",
      "outputs": [
        {
          "internalType": "uint256",
          "name": "",
          "type": "uint256"
        }
      ],
      "stateMutability": "view",
      "type": "function",
      "constant": true
    },
    {
      "inputs": [
        {
          "internalType": "address",
          "name": "_newOwner",
          "type": "address"
        }
      ],
      "name": "changeAdmin",
      "outputs": [],
      "stateMutability": "nonpayable",
      "type": "function"
    },
    {
      "inputs": [
        {
          "internalType": "address",
          "name": "_studentID",
          "type": "address"
        },
        {
          "internalType": "string",
          "name": "_studentName",
          "type": "string"
        },
        {
          "internalType": "string",
          "name": "_courseEnroll",
          "type": "string"
        }
      ],
      "name": "studentEnroll",
      "outputs": [],
      "stateMutability": "nonpayable",
      "type": "function"
    },
    {
      "inputs": [
        {
          "internalType": "address",
          "name": "_studentID",
          "type": "address"
        }
      ],
      "name": "showStudentDetails",
      "outputs": [
        {
          "components": [
            {
              "internalType": "uint256",
              "name": "rollNo",
              "type": "uint256"
            },
            {
              "internalType": "string",
              "name": "name",
              "type": "string"
            },
            {
              "internalType": "string",
              "name": "courseEnroll",
              "type": "string"
            },
            {
              "internalType": "bool",
              "name": "status",
              "type": "bool"
            }
          ],
          "internalType": "struct studentRegistration.student",
          "name": "",
          "type": "tuple"
        }
      ],
      "stateMutability": "view",
      "type": "function",
      "constant": true
    },
    {
      "inputs": [
        {
          "internalType": "address",
          "name": "_studentID",
          "type": "address"
        },
        {
          "internalType": "string",
          "name": "_studentName",
          "type": "string"
        }
      ],
      "name": "updateStudentName",
      "outputs": [],
      "stateMutability": "nonpayable",
      "type": "function"
    },
    {
      "inputs": [
        {
          "internalType": "address",
          "name": "_studentID",
          "type": "address"
        },
        {
          "internalType": "string",
          "name": "_courseEnroll",
          "type": "string"
        }
      ],
      "name": "updateStudentCourse",
      "outputs": [],
      "stateMutability": "nonpayable",
      "type": "function"
    },
    {
      "inputs": [
        {
          "internalType": "address",
          "name": "_studentID",
          "type": "address"
        }
      ],
      "name": "cancelStudentRegistration",
      "outputs": [],
      "stateMutability": "nonpayable",
      "type": "function"
    }
  ],
  "bytecode": "0x608060405234801561001057600080fd5b5033600160006101000a81548173ffffffffffffffffffffffffffffffffffffffff021916908373ffffffffffffffffffffffffffffffffffffffff160217905550611cc9806100616000396000f3fe608060405234801561001057600080fd5b50600436106100885760003560e01c8063bbf38d111161005b578063bbf38d11146100ff578063bdd587201461012f578063f5e966f11461014b578063f851a4401461016757610088565b806306661abd1461008d5780632ce91e15146100ab57806356ec48b9146100c75780638f283970146100e3575b600080fd5b610095610185565b6040516100a29190611259565b60405180910390f35b6100c560048036038101906100c0919061142c565b61018b565b005b6100e160048036038101906100dc91906114b7565b610520565b005b6100fd60048036038101906100f89190611513565b610868565b005b61011960048036038101906101149190611513565b61093c565b6040516101269190611653565b60405180910390f35b61014960048036038101906101449190611513565b610b28565b005b610165600480360381019061016091906114b7565b610e4b565b005b61016f611193565b60405161017c9190611684565b60405180910390f35b60005481565b3373ffffffffffffffffffffffffffffffffffffffff16600160009054906101000a900473ffffffffffffffffffffffffffffffffffffffff1673ffffffffffffffffffffffffffffffffffffffff161461021b576040517f08c379a0000000000000000000000000000000000000000000000000000000008152600401610212906116fc565b60405180910390fd5b6000600260008573ffffffffffffffffffffffffffffffffffffffff1673ffffffffffffffffffffffffffffffffffffffff168152602001908152602001600020604051806080016040529081600082015481526020016001820180546102819061174b565b80601f01602080910402602001604051908101604052809291908181526020018280546102ad9061174b565b80156102fa5780601f106102cf576101008083540402835291602001916102fa565b820191906000526020600020905b8154815290600101906020018083116102dd57829003601f168201915b505050505081526020016002820180546103139061174b565b80601f016020809104026020016040519081016040528092919081815260200182805461033f9061174b565b801561038c5780601f106103615761010080835404028352916020019161038c565b820191906000526020600020905b81548152906001019060200180831161036f57829003601f168201915b505050505081526020016003820160009054906101000a900460ff16151515158152505090508060600151156103f7576040517f08c379a00000000000000000000000000000000000000000000000000000000081526004016103ee906117ee565b60405180910390fd5b60008081546104059061183d565b91905081905550600054816000018181525050828160200181905250818160400181905250600181606001901515908115158152505080600260008673ffffffffffffffffffffffffffffffffffffffff1673ffffffffffffffffffffffffffffffffffffffff16815260200190815260200160002060008201518160000155602082015181600101908161049a9190611a31565b5060408201518160020190816104b09190611a31565b5060608201518160030160006101000a81548160ff0219169083151502179055509050506000548473ffffffffffffffffffffffffffffffffffffffff167ff0aaebe82a457ce992f0ab6550114299b7f8aee54d37a3aea1516d99d7a1bfeb60405160405180910390a350505050565b3373ffffffffffffffffffffffffffffffffffffffff16600160009054906101000a900473ffffffffffffffffffffffffffffffffffffffff1673ffffffffffffffffffffffffffffffffffffffff1614806105a757503373ffffffffffffffffffffffffffffffffffffffff168273ffffffffffffffffffffffffffffffffffffffff16145b6105e6576040517f08c379a00000000000000000000000000000000000000000000000000000000081526004016105dd90611b75565b60405180910390fd5b6000600260008473ffffffffffffffffffffffffffffffffffffffff1673ffffffffffffffffffffffffffffffffffffffff1681526020019081526020016000206040518060800160405290816000820154815260200160018201805461064c9061174b565b80601f01602080910402602001604051908101604052809291908181526020018280546106789061174b565b80156106c55780601f1061069a576101008083540402835291602001916106c5565b820191906000526020600020905b8154815290600101906020018083116106a857829003601f168201915b505050505081526020016002820180546106de9061174b565b80601f016020809104026020016040519081016040528092919081815260200182805461070a9061174b565b80156107575780601f1061072c57610100808354040283529160200191610757565b820191906000526020600020905b81548152906001019060200180831161073a57829003601f168201915b505050505081526020016003820160009054906101000a900460ff161515151581525050905080606001516107c1576040517f08c379a00000000000000000000000000000000000000000000000000000000081526004016107b890611c07565b60405180910390fd5b81816020018190525080600260008573ffffffffffffffffffffffffffffffffffffffff1673ffffffffffffffffffffffffffffffffffffffff1681526020019081526020016000206000820151816000015560208201518160010190816108299190611a31565b50604082015181600201908161083f9190611a31565b5060608201518160030160006101000a81548160ff021916908315150217905550905050505050565b3373ffffffffffffffffffffffffffffffffffffffff16600160009054906101000a900473ffffffffffffffffffffffffffffffffffffffff1673ffffffffffffffffffffffffffffffffffffffff16146108f8576040517f08c379a00000000000000000000000000000000000000000000000000000000081526004016108ef90611c73565b60405180910390fd5b80600160006101000a81548173ffffffffffffffffffffffffffffffffffffffff021916908373ffffffffffffffffffffffffffffffffffffffff16021790555050565b6109446111b9565b6000600260008473ffffffffffffffffffffffffffffffffffffffff1673ffffffffffffffffffffffffffffffffffffffff168152602001908152602001600020604051806080016040529081600082015481526020016001820180546109aa9061174b565b80601f01602080910402602001604051908101604052809291908181526020018280546109d69061174b565b8015610a235780601f106109f857610100808354040283529160200191610a23565b820191906000526020600020905b815481529060010190602001808311610a0657829003601f168201915b50505050508152602001600282018054610a3c9061174b565b80601f0160208091040260200160405190810160405280929190818152602001828054610a689061174b565b8015610ab55780601f10610a8a57610100808354040283529160200191610ab5565b820191906000526020600020905b815481529060010190602001808311610a9857829003601f168201915b505050505081526020016003820160009054906101000a900460ff16151515158152505090508060600151610b1f576040517f08c379a0000000000000000000000000000000000000000000000000000000008152600401610b1690611c07565b60405180910390fd5b80915050919050565b3373ffffffffffffffffffffffffffffffffffffffff16600160009054906101000a900473ffffffffffffffffffffffffffffffffffffffff1673ffffffffffffffffffffffffffffffffffffffff161480610baf57503373ffffffffffffffffffffffffffffffffffffffff168173ffffffffffffffffffffffffffffffffffffffff16145b610bee576040517f08c379a0000000000000000000000000000000000000000000000000000000008152600401610be590611b75565b60405180910390fd5b6000600260008373ffffffffffffffffffffffffffffffffffffffff1673ffffffffffffffffffffffffffffffffffffffff16815260200190815260200160002060405180608001604052908160008201548152602001600182018054610c549061174b565b80601f0160208091040260200160405190810160405280929190818152602001828054610c809061174b565b8015610ccd5780601f10610ca257610100808354040283529160200191610ccd565b820191906000526020600020905b815481529060010190602001808311610cb057829003601f168201915b50505050508152602001600282018054610ce69061174b565b80601f0160208091040260200160405190810160405280929190818152602001828054610d129061174b565b8015610d5f5780601f10610d3457610100808354040283529160200191610d5f565b820191906000526020600020905b815481529060010190602001808311610d4257829003601f168201915b505050505081526020016003820160009054906101000a900460ff16151515158152505090508060600151610dc9576040517f08c379a0000000000000000000000000000000000000000000000000000000008152600401610dc090611c07565b60405180910390fd5b600260008373ffffffffffffffffffffffffffffffffffffffff1673ffffffffffffffffffffffffffffffffffffffff168152602001908152602001600020600080820160009055600182016000610e2191906111e3565b600282016000610e3191906111e3565b6003820160006101000a81549060ff021916905550505050565b3373ffffffffffffffffffffffffffffffffffffffff16600160009054906101000a900473ffffffffffffffffffffffffffffffffffffffff1673ffffffffffffffffffffffffffffffffffffffff161480610ed257503373ffffffffffffffffffffffffffffffffffffffff168273ffffffffffffffffffffffffffffffffffffffff16145b610f11576040517f08c379a0000000000000000000000000000000000000000000000000000000008152600401610f0890611b75565b60405180910390fd5b6000600260008473ffffffffffffffffffffffffffffffffffffffff1673ffffffffffffffffffffffffffffffffffffffff16815260200190815260200160002060405180608001604052908160008201548152602001600182018054610f779061174b565b80601f0160208091040260200160405190810160405280929190818152602001828054610fa39061174b565b8015610ff05780601f10610fc557610100808354040283529160200191610ff0565b820191906000526020600020905b815481529060010190602001808311610fd357829003601f168201915b505050505081526020016002820180546110099061174b565b80601f01602080910402602001604051908101604052809291908181526020018280546110359061174b565b80156110825780601f1061105757610100808354040283529160200191611082565b820191906000526020600020905b81548152906001019060200180831161106557829003601f168201915b505050505081526020016003820160009054906101000a900460ff161515151581525050905080606001516110ec576040517f08c379a00000000000000000000000000000000000000000000000000000000081526004016110e390611c07565b60405180910390fd5b81816040018190525080600260008573ffffffffffffffffffffffffffffffffffffffff1673ffffffffffffffffffffffffffffffffffffffff1681526020019081526020016000206000820151816000015560208201518160010190816111549190611a31565b50604082015181600201908161116a9190611a31565b5060608201518160030160006101000a81548160ff021916908315150217905550905050505050565b600160009054906101000a900473ffffffffffffffffffffffffffffffffffffffff1681565b60405180608001604052806000815260200160608152602001606081526020016000151581525090565b5080546111ef9061174b565b6000825580601f106112015750611220565b601f01602090049060005260206000209081019061121f9190611223565b5b50565b5b8082111561123c576000816000905550600101611224565b5090565b6000819050919050565b61125381611240565b82525050565b600060208201905061126e600083018461124a565b92915050565b6000604051905090565b600080fd5b600080fd5b600073ffffffffffffffffffffffffffffffffffffffff82169050919050565b60006112b382611288565b9050919050565b6112c3816112a8565b81146112ce57600080fd5b50565b6000813590506112e0816112ba565b92915050565b600080fd5b600080fd5b6000601f19601f8301169050919050565b7f4e487b7100000000000000000000000000000000000000000000000000000000600052604160045260246000fd5b611339826112f0565b810181811067ffffffffffffffff8211171561135857611357611301565b5b80604052505050565b600061136b611274565b90506113778282611330565b919050565b600067ffffffffffffffff82111561139757611396611301565b5b6113a0826112f0565b9050602081019050919050565b82818337600083830152505050565b60006113cf6113ca8461137c565b611361565b9050828152602081018484840111156113eb576113ea6112eb565b5b6113f68482856113ad565b509392505050565b600082601f830112611413576114126112e6565b5b81356114238482602086016113bc565b91505092915050565b6000806000606084860312156114455761144461127e565b5b6000611453868287016112d1565b935050602084013567ffffffffffffffff81111561147457611473611283565b5b611480868287016113fe565b925050604084013567ffffffffffffffff8111156114a1576114a0611283565b5b6114ad868287016113fe565b9150509250925092565b600080604083850312156114ce576114cd61127e565b5b60006114dc858286016112d1565b925050602083013567ffffffffffffffff8111156114fd576114fc611283565b5b611509858286016113fe565b9150509250929050565b6000602082840312156115295761152861127e565b5b6000611537848285016112d1565b91505092915050565b61154981611240565b82525050565b600081519050919050565b600082825260208201905092915050565b60005b8381101561158957808201518184015260208101905061156e565b60008484015250505050565b60006115a08261154f565b6115aa818561155a565b93506115ba81856020860161156b565b6115c3816112f0565b840191505092915050565b60008115159050919050565b6115e3816115ce565b82525050565b60006080830160008301516116016000860182611540565b50602083015184820360208601526116198282611595565b915050604083015184820360408601526116338282611595565b915050606083015161164860608601826115da565b508091505092915050565b6000602082019050818103600083015261166d81846115e9565b905092915050565b61167e816112a8565b82525050565b60006020820190506116996000830184611675565b92915050565b600082825260208201905092915050565b7f6f6e6c792061646d696e2063616e2072656769737465722073747564656e7400600082015250565b60006116e6601f8361169f565b91506116f1826116b0565b602082019050919050565b60006020820190508181036000830152611715816116d9565b9050919050565b7f4e487b7100000000000000000000000000000000000000000000000000000000600052602260045260246000fd5b6000600282049050600182168061176357607f821691505b6020821081036117765761177561171c565b5b50919050565b7f416c72656164792072656769737465726564207573696e67207468697320616460008201527f6472657373000000000000000000000000000000000000000000000000000000602082015250565b60006117d860258361169f565b91506117e38261177c565b604082019050919050565b60006020820190508181036000830152611807816117cb565b9050919050565b7f4e487b7100000000000000000000000000000000000000000000000000000000600052601160045260246000fd5b600061184882611240565b91507fffffffffffffffffffffffffffffffffffffffffffffffffffffffffffffffff820361187a5761187961180e565b5b600182019050919050565b60008190508160005260206000209050919050565b60006020601f8301049050919050565b600082821b905092915050565b6000600883026118e77fffffffffffffffffffffffffffffffffffffffffffffffffffffffffffffffff826118aa565b6118f186836118aa565b95508019841693508086168417925050509392505050565b6000819050919050565b600061192e61192961192484611240565b611909565b611240565b9050919050565b6000819050919050565b61194883611913565b61195c61195482611935565b8484546118b7565b825550505050565b600090565b611971611964565b61197c81848461193f565b505050565b5b818110156119a057611995600082611969565b600181019050611982565b5050565b601f8211156119e5576119b681611885565b6119bf8461189a565b810160208510156119ce578190505b6119e26119da8561189a565b830182611981565b50505b505050565b600082821c905092915050565b6000611a08600019846008026119ea565b1980831691505092915050565b6000611a2183836119f7565b9150826002028217905092915050565b611a3a8261154f565b67ffffffffffffffff811115611a5357611a52611301565b5b611a5d825461174b565b611a688282856119a4565b600060209050601f831160018114611a9b5760008415611a89578287015190505b611a938582611a15565b865550611afb565b601f198416611aa986611885565b60005b82811015611ad157848901518255600182019150602085019450602081019050611aac565b86831015611aee5784890151611aea601f8916826119f7565b8355505b6001600288020188555050505b505050505050565b7f6f6e6c792061646d696e206f722073747564656e742063616e2075706461746560008201527f2064657461696c73000000000000000000000000000000000000000000000000602082015250565b6000611b5f60288361169f565b9150611b6a82611b03565b604082019050919050565b60006020820190508181036000830152611b8e81611b52565b9050919050565b7f4e6f2073747564656e742072656769737465726564207573696e67207468697360008201527f2061646472657373000000000000000000000000000000000000000000000000602082015250565b6000611bf160288361169f565b9150611bfc82611b95565b604082019050919050565b60006020820190508181036000830152611c2081611be4565b9050919050565b7f6f6e6c792061646d696e2063616e206368616e67652061646d696e0000000000600082015250565b6000611c5d601b8361169f565b9150611c6882611c27565b602082019050919050565b60006020820190508181036000830152611c8c81611c50565b905091905056fea26469706673582212209554e4a424b595f918011645838c74c878c5b474071791103c64307b5bf593d064736f6c63430008130033",
  "immutableReferences": {},
  "source": "// SPDX-License-Identifier: MIT\n\npragma solidity 0.8.19;\n\ncontract studentRegistration{\n\n    struct student{\n        uint rollNo;\n        string name;\n        string courseEnroll;\n        bool status;\n    }\n\n    uint public count;\n    address public admin;\n    mapping(address => student) studentDetails;\n    event registration(address indexed studentId, uint indexed rollNo);\n    \n    constructor(){\n        admin = msg.sender;\n    }\n\n    function changeAdmin(address _newOwner) public{\n        require(admin == msg.sender,\"only admin can change admin\");\n        admin = _newOwner;\n    }\n\n    function studentEnroll(address _studentID, string memory _studentName,string memory _courseEnroll) public {\n        require(admin == msg.sender,\"only admin can register student\");\n        student memory st = studentDetails[_studentID];\n        require(!st.status,\"Already registered using this address\");\n        ++count;\n        st.rollNo = count;\n        st.name = _studentName;\n        st.courseEnroll = _courseEnroll;\n        st.status = true;\n        studentDetails[_studentID] = st;\n        emit registration(_studentID,count);\n    }\n\n    function showStudentDetails(address _studentID) public view returns(student memory){\n        student memory st = studentDetails[_studentID];\n        require(st.status,\"No student registered using this address\");\n        return st;\n    }\n\n    function updateStudentName(address _studentID, string memory _studentName) public {\n        require(admin == msg.sender || _studentID == msg.sender,\"only admin or student can update details\");\n        student memory st = studentDetails[_studentID];\n        require(st.status,\"No student registered using this address\");\n        st.name = _studentName;\n        studentDetails[_studentID] = st;\n    }\n\n    function updateStudentCourse(address _studentID, string memory _courseEnroll) public {\n        require(admin == msg.sender || _studentID == msg.sender,\"only admin or student can update details\");\n        student memory st = studentDetails[_studentID];\n        require(st.status,\"No student registered using this address\");\n        st.courseEnroll = _courseEnroll;\n        studentDetails[_studentID] = st;\n    }\n\n    function cancelStudentRegistration(address _studentID) public {\n        require(admin == msg.sender || _studentID == msg.sender,\"only admin or student can update details\");\n        student memory st = studentDetails[_studentID];\n        require(st.status,\"No student registered using this address\");\n        delete studentDetails[_studentID];\n    }\n}\n",
  "sourcePath": "/home/rajdeep/RAJDEEP/Project/Week-1 Task/studentRegistation/contracts/studentRegistration.sol",
  "compiler": {
    "name": "solc",
    "version": "0.8.19+commit.7dd6d404.Emscripten.clang"
  },
  "schemaVersion": "3.4.13",
  "updatedAt": "2023-03-31T09:55:42.565Z",
  "networkType": "ethereum",
  "devdoc": {
    "kind": "dev",
    "methods": {},
    "version": 1
  },
  "userdoc": {
    "kind": "user",
    "methods": {},
    "version": 1
  }
}